{
  "contractName": "SupplyChain",
  "abi": [
    {
      "anonymous": false,
      "inputs": [
        {
          "indexed": false,
          "internalType": "uint256",
          "name": "id",
          "type": "uint256"
        },
        {
          "indexed": false,
          "internalType": "string",
          "name": "name",
          "type": "string"
        },
        {
          "indexed": false,
          "internalType": "uint256",
          "name": "price",
          "type": "uint256"
        }
      ],
      "name": "ProductCreated",
      "type": "event"
    },
    {
      "anonymous": false,
      "inputs": [
        {
          "indexed": false,
          "internalType": "uint256",
          "name": "id",
          "type": "uint256"
        },
        {
          "indexed": false,
          "internalType": "enum SupplyChain.ProductStatus",
          "name": "status",
          "type": "uint8"
        }
      ],
      "name": "ProductStatusUpdated",
      "type": "event"
    },
    {
      "inputs": [],
      "name": "productCount",
      "outputs": [
        {
          "internalType": "uint256",
          "name": "",
          "type": "uint256"
        }
      ],
      "stateMutability": "view",
      "type": "function",
      "constant": true
    },
    {
      "inputs": [
        {
          "internalType": "uint256",
          "name": "",
          "type": "uint256"
        }
      ],
      "name": "products",
      "outputs": [
        {
          "internalType": "uint256",
          "name": "id",
          "type": "uint256"
        },
        {
          "internalType": "string",
          "name": "name",
          "type": "string"
        },
        {
          "internalType": "string",
          "name": "description",
          "type": "string"
        },
        {
          "internalType": "uint256",
          "name": "price",
          "type": "uint256"
        },
        {
          "internalType": "address",
          "name": "owner",
          "type": "address"
        },
        {
          "internalType": "enum SupplyChain.ProductStatus",
          "name": "status",
          "type": "uint8"
        }
      ],
      "stateMutability": "view",
      "type": "function",
      "constant": true
    },
    {
      "inputs": [
        {
          "internalType": "string",
          "name": "_name",
          "type": "string"
        },
        {
          "internalType": "string",
          "name": "_description",
          "type": "string"
        },
        {
          "internalType": "uint256",
          "name": "_price",
          "type": "uint256"
        }
      ],
      "name": "createProduct",
      "outputs": [],
      "stateMutability": "nonpayable",
      "type": "function"
    },
    {
      "inputs": [
        {
          "internalType": "uint256",
          "name": "_id",
          "type": "uint256"
        },
        {
          "internalType": "address",
          "name": "_to",
          "type": "address"
        }
      ],
      "name": "transferProduct",
      "outputs": [],
      "stateMutability": "nonpayable",
      "type": "function"
    },
    {
      "inputs": [
        {
          "internalType": "uint256",
          "name": "_id",
          "type": "uint256"
        }
      ],
      "name": "getProductHistory",
      "outputs": [
        {
          "internalType": "address[]",
          "name": "",
          "type": "address[]"
        }
      ],
      "stateMutability": "view",
      "type": "function",
      "constant": true
    },
    {
      "inputs": [],
      "name": "getProductCount",
      "outputs": [
        {
          "internalType": "uint256",
          "name": "",
          "type": "uint256"
        }
      ],
      "stateMutability": "view",
      "type": "function",
      "constant": true
    }
  ],
  "bytecode": "0x608060405234801561001057600080fd5b50611261806100206000396000f3fe608060405234801561001057600080fd5b50600436106100625760003560e01c80634a348da91461006757806357a096a1146100855780637acc0b20146100b5578063a1422209146100ea578063e0f6ef8714610106578063e43059e514610124575b600080fd5b61006f610140565b60405161007c9190610e57565b60405180910390f35b61009f600480360381019061009a9190610c25565b61014a565b6040516100ac9190610df5565b60405180910390f35b6100cf60048036038101906100ca9190610c25565b6101ed565b6040516100e196959493929190610e9b565b60405180910390f35b61010460048036038101906100ff9190610ba6565b610366565b005b61010e61064a565b60405161011b9190610e57565b60405180910390f35b61013e60048036038101906101399190610c4e565b610650565b005b6000600154905090565b60606000808381526020019081526020016000206005018054806020026020016040519081016040528092919081815260200182805480156101e157602002820191906000526020600020905b8160009054906101000a900473ffffffffffffffffffffffffffffffffffffffff1673ffffffffffffffffffffffffffffffffffffffff1681526020019060010190808311610197575b50505050509050919050565b6000602052806000526040600020600091509050806000015490806001018054610216906110a1565b80601f0160208091040260200160405190810160405280929190818152602001828054610242906110a1565b801561028f5780601f106102645761010080835404028352916020019161028f565b820191906000526020600020905b81548152906001019060200180831161027257829003601f168201915b5050505050908060020180546102a4906110a1565b80601f01602080910402602001604051908101604052809291908181526020018280546102d0906110a1565b801561031d5780601f106102f25761010080835404028352916020019161031d565b820191906000526020600020905b81548152906001019060200180831161030057829003601f168201915b5050505050908060030154908060040160009054906101000a900473ffffffffffffffffffffffffffffffffffffffff16908060040160149054906101000a900460ff16905086565b60016000815480929190610379906110d3565b91905055506040518060e0016040528060015481526020018481526020018381526020018281526020013373ffffffffffffffffffffffffffffffffffffffff168152602001600060028111156103f9577f4e487b7100000000000000000000000000000000000000000000000000000000600052602160045260246000fd5b8152602001600067ffffffffffffffff81111561043f577f4e487b7100000000000000000000000000000000000000000000000000000000600052604160045260246000fd5b60405190808252806020026020018201604052801561046d5781602001602082028036833780820191505090505b5081525060008060015481526020019081526020016000206000820151816000015560208201518160010190805190602001906104ab9291906109e7565b5060408201518160020190805190602001906104c89291906109e7565b506060820151816003015560808201518160040160006101000a81548173ffffffffffffffffffffffffffffffffffffffff021916908373ffffffffffffffffffffffffffffffffffffffff16021790555060a08201518160040160146101000a81548160ff0219169083600281111561056b577f4e487b7100000000000000000000000000000000000000000000000000000000600052602160045260246000fd5b021790555060c082015181600501908051906020019061058c929190610a6d565b509050506000806001548152602001908152602001600020600501339080600181540180825580915050600190039060005260206000200160009091909190916101000a81548173ffffffffffffffffffffffffffffffffffffffff021916908373ffffffffffffffffffffffffffffffffffffffff1602179055507f418d4005ee80a6584eef7f51de08850f7f79c3e7b464f15ef3f236423d964b08600154848360405161063d93929190610f0a565b60405180910390a1505050565b60015481565b60008211801561066257506001548211155b6106a1576040517f08c379a000000000000000000000000000000000000000000000000000000000815260040161069890610e37565b60405180910390fd5b3373ffffffffffffffffffffffffffffffffffffffff1660008084815260200190815260200160002060040160009054906101000a900473ffffffffffffffffffffffffffffffffffffffff1673ffffffffffffffffffffffffffffffffffffffff1614610744576040517f08c379a000000000000000000000000000000000000000000000000000000000815260040161073b90610e17565b60405180910390fd5b600080838152602001908152602001600020600501819080600181540180825580915050600190039060005260206000200160009091909190916101000a81548173ffffffffffffffffffffffffffffffffffffffff021916908373ffffffffffffffffffffffffffffffffffffffff1602179055508060008084815260200190815260200160002060040160006101000a81548173ffffffffffffffffffffffffffffffffffffffff021916908373ffffffffffffffffffffffffffffffffffffffff16021790555060008083815260200190815260200160002060050160008154811061085c577f4e487b7100000000000000000000000000000000000000000000000000000000600052603260045260246000fd5b9060005260206000200160009054906101000a900473ffffffffffffffffffffffffffffffffffffffff1673ffffffffffffffffffffffffffffffffffffffff168173ffffffffffffffffffffffffffffffffffffffff16141561092357600260008084815260200190815260200160002060040160146101000a81548160ff02191690836002811115610919577f4e487b7100000000000000000000000000000000000000000000000000000000600052602160045260246000fd5b0217905550610988565b600160008084815260200190815260200160002060040160146101000a81548160ff02191690836002811115610982577f4e487b7100000000000000000000000000000000000000000000000000000000600052602160045260246000fd5b02179055505b7fb8a3401adfc11253c3aff18e4b48103cec45c852b9afc487c23f32e26746242c8260008085815260200190815260200160002060040160149054906101000a900460ff166040516109db929190610e72565b60405180910390a15050565b8280546109f3906110a1565b90600052602060002090601f016020900481019282610a155760008555610a5c565b82601f10610a2e57805160ff1916838001178555610a5c565b82800160010185558215610a5c579182015b82811115610a5b578251825591602001919060010190610a40565b5b509050610a699190610af7565b5090565b828054828255906000526020600020908101928215610ae6579160200282015b82811115610ae55782518260006101000a81548173ffffffffffffffffffffffffffffffffffffffff021916908373ffffffffffffffffffffffffffffffffffffffff16021790555091602001919060010190610a8d565b5b509050610af39190610af7565b5090565b5b80821115610b10576000816000905550600101610af8565b5090565b6000610b27610b2284610f79565b610f48565b905082815260208101848484011115610b3f57600080fd5b610b4a84828561105f565b509392505050565b600081359050610b61816111fd565b92915050565b600082601f830112610b7857600080fd5b8135610b88848260208601610b14565b91505092915050565b600081359050610ba081611214565b92915050565b600080600060608486031215610bbb57600080fd5b600084013567ffffffffffffffff811115610bd557600080fd5b610be186828701610b67565b935050602084013567ffffffffffffffff811115610bfe57600080fd5b610c0a86828701610b67565b9250506040610c1b86828701610b91565b9150509250925092565b600060208284031215610c3757600080fd5b6000610c4584828501610b91565b91505092915050565b60008060408385031215610c6157600080fd5b6000610c6f85828601610b91565b9250506020610c8085828601610b52565b9150509250929050565b6000610c968383610ca2565b60208301905092915050565b610cab81610ffe565b82525050565b610cba81610ffe565b82525050565b6000610ccb82610fb9565b610cd58185610fdc565b9350610ce083610fa9565b8060005b83811015610d11578151610cf88882610c8a565b9750610d0383610fcf565b925050600181019050610ce4565b5085935050505092915050565b610d278161104d565b82525050565b6000610d3882610fc4565b610d428185610fed565b9350610d5281856020860161106e565b610d5b816111d8565b840191505092915050565b6000610d73601783610fed565b91507f4f6e6c79206f776e65722063616e207472616e736665720000000000000000006000830152602082019050919050565b6000610db3601283610fed565b91507f496e76616c69642070726f6475637420494400000000000000000000000000006000830152602082019050919050565b610def81611043565b82525050565b60006020820190508181036000830152610e0f8184610cc0565b905092915050565b60006020820190508181036000830152610e3081610d66565b9050919050565b60006020820190508181036000830152610e5081610da6565b9050919050565b6000602082019050610e6c6000830184610de6565b92915050565b6000604082019050610e876000830185610de6565b610e946020830184610d1e565b9392505050565b600060c082019050610eb06000830189610de6565b8181036020830152610ec28188610d2d565b90508181036040830152610ed68187610d2d565b9050610ee56060830186610de6565b610ef26080830185610cb1565b610eff60a0830184610d1e565b979650505050505050565b6000606082019050610f1f6000830186610de6565b8181036020830152610f318185610d2d565b9050610f406040830184610de6565b949350505050565b6000604051905081810181811067ffffffffffffffff82111715610f6f57610f6e6111a9565b5b8060405250919050565b600067ffffffffffffffff821115610f9457610f936111a9565b5b601f19601f8301169050602081019050919050565b6000819050602082019050919050565b600081519050919050565b600081519050919050565b6000602082019050919050565b600082825260208201905092915050565b600082825260208201905092915050565b600061100982611023565b9050919050565b600081905061101e826111e9565b919050565b600073ffffffffffffffffffffffffffffffffffffffff82169050919050565b6000819050919050565b600061105882611010565b9050919050565b82818337600083830152505050565b60005b8381101561108c578082015181840152602081019050611071565b8381111561109b576000848401525b50505050565b600060028204905060018216806110b957607f821691505b602082108114156110cd576110cc61117a565b5b50919050565b60006110de82611043565b91507fffffffffffffffffffffffffffffffffffffffffffffffffffffffffffffffff8214156111115761111061111c565b5b600182019050919050565b7f4e487b7100000000000000000000000000000000000000000000000000000000600052601160045260246000fd5b7f4e487b7100000000000000000000000000000000000000000000000000000000600052602160045260246000fd5b7f4e487b7100000000000000000000000000000000000000000000000000000000600052602260045260246000fd5b7f4e487b7100000000000000000000000000000000000000000000000000000000600052604160045260246000fd5b6000601f19601f8301169050919050565b600381106111fa576111f961114b565b5b50565b61120681610ffe565b811461121157600080fd5b50565b61121d81611043565b811461122857600080fd5b5056fea264697066735822122095fd4d5e9a04159acffb83f03b1d6e8b416e08ddd24337b704ea8687d7adac7d64736f6c63430008000033",
  "immutableReferences": {},
  "source": "// SPDX-License-Identifier: MIT\r\npragma solidity ^0.8.0;\r\n\r\ncontract SupplyChain {\r\n    enum ProductStatus { Created, InTransit, Delivered }\r\n\r\n    struct Product {\r\n        uint256 id;\r\n        string name;\r\n        string description;\r\n        uint256 price;\r\n        address owner;\r\n        ProductStatus status;\r\n        address[] history;\r\n    }\r\n\r\n    mapping(uint256 => Product) public products;\r\n    uint256 public productCount;\r\n\r\n    event ProductCreated(uint256 id, string name, uint256 price);\r\n    event ProductStatusUpdated(uint256 id, ProductStatus status);\r\n\r\n    function createProduct(\r\n        string memory _name,\r\n        string memory _description,\r\n        uint256 _price\r\n    ) public {\r\n        productCount++;\r\n        products[productCount] = Product(\r\n            productCount,\r\n            _name,\r\n            _description,\r\n            _price,\r\n            msg.sender,\r\n            ProductStatus.Created,\r\n            new address[](0)\r\n        );\r\n        products[productCount].history.push(msg.sender);\r\n        emit ProductCreated(productCount, _name, _price);\r\n    }\r\n\r\n    function transferProduct(uint256 _id, address _to) public {\r\n    require(_id > 0 && _id <= productCount, \"Invalid product ID\");\r\n    require(products[_id].owner == msg.sender, \"Only owner can transfer\");\r\n    \r\n    // Update history\r\n    products[_id].history.push(_to);\r\n    \r\n    // Update owner\r\n    products[_id].owner = _to;\r\n    \r\n    // Update status\r\n    if (_to == products[_id].history[0]) {\r\n        products[_id].status = ProductStatus.Delivered;\r\n    } else {\r\n        products[_id].status = ProductStatus.InTransit;\r\n    }\r\n    \r\n    emit ProductStatusUpdated(_id, products[_id].status);\r\n}\r\n\r\n    function getProductHistory(uint256 _id) public view returns (address[] memory) {\r\n        return products[_id].history;\r\n    }\r\n\r\n    function getProductCount() public view returns (uint256) {\r\n        return productCount;\r\n    }\r\n}",
  "sourcePath": "C:\\Users\\mkmk3\\supply-chain-dapp\\contracts\\SupplyChain.sol",
  "compiler": {
    "name": "solc",
    "version": "0.8.0+commit.c7dfd78e.Emscripten.clang"
  },
  "schemaVersion": "3.4.16",
  "updatedAt": "2025-04-21T03:52:50.586Z",
  "networkType": "ethereum",
  "devdoc": {
    "kind": "dev",
    "methods": {},
    "version": 1
  },
  "userdoc": {
    "kind": "user",
    "methods": {},
    "version": 1
  }
}